{
  "abi": [
    {
      "anonymous": false,
      "inputs": [
        {
          "indexed": true,
          "internalType": "address",
          "name": "factory",
          "type": "address"
        },
        {
          "indexed": true,
          "internalType": "address",
          "name": "owner",
          "type": "address"
        },
        {
          "indexed": true,
          "internalType": "address",
          "name": "clone",
          "type": "address"
        }
      ],
      "name": "CloneDeployed",
      "type": "event"
    },
    {
      "anonymous": false,
      "inputs": [
        {
          "indexed": true,
          "internalType": "address",
          "name": "clone",
          "type": "address"
        },
        {
          "indexed": true,
          "internalType": "uint256",
          "name": "contentId",
          "type": "uint256"
        }
      ],
      "name": "ContentRemoved",
      "type": "event"
    },
    {
      "anonymous": false,
      "inputs": [
        {
          "indexed": true,
          "internalType": "address",
          "name": "clone",
          "type": "address"
        },
        {
          "indexed": true,
          "internalType": "uint256",
          "name": "contentId",
          "type": "uint256"
        },
        {
          "indexed": false,
          "internalType": "string",
          "name": "content",
          "type": "string"
        },
        {
          "indexed": true,
          "internalType": "address",
          "name": "owner",
          "type": "address"
        }
      ],
      "name": "ContentSet",
      "type": "event"
    },
    {
      "anonymous": false,
      "inputs": [
        {
          "indexed": true,
          "internalType": "address",
          "name": "factory",
          "type": "address"
        },
        {
          "indexed": true,
          "internalType": "address",
          "name": "oldImplementation",
          "type": "address"
        },
        {
          "indexed": true,
          "internalType": "address",
          "name": "newImplementation",
          "type": "address"
        }
      ],
      "name": "FactoryImplementationSet",
      "type": "event"
    },
    {
      "anonymous": false,
      "inputs": [
        {
          "indexed": true,
          "internalType": "address",
          "name": "clone",
          "type": "address"
        },
        {
          "indexed": false,
          "internalType": "string",
          "name": "metadata",
          "type": "string"
        }
      ],
      "name": "PlatformMetadataSet",
      "type": "event"
    },
    {
      "anonymous": false,
      "inputs": [
        {
          "indexed": true,
          "internalType": "address",
          "name": "clone",
          "type": "address"
        },
        {
          "indexed": true,
          "internalType": "address",
          "name": "account",
          "type": "address"
        },
        {
          "indexed": true,
          "internalType": "uint8",
          "name": "role",
          "type": "uint8"
        }
      ],
      "name": "RoleSet",
      "type": "event"
    },
    {
      "inputs": [
        {
          "internalType": "uint256",
          "name": "contentId",
          "type": "uint256"
        }
      ],
      "name": "emitContentRemoved",
      "outputs": [],
      "stateMutability": "nonpayable",
      "type": "function"
    },
    {
      "inputs": [
        {
          "internalType": "uint256",
          "name": "contentId",
          "type": "uint256"
        },
        {
          "internalType": "string",
          "name": "content",
          "type": "string"
        },
        {
          "internalType": "address",
          "name": "owner",
          "type": "address"
        }
      ],
      "name": "emitContentSet",
      "outputs": [],
      "stateMutability": "nonpayable",
      "type": "function"
    },
    {
      "inputs": [
        {
          "internalType": "address",
          "name": "owner",
          "type": "address"
        },
        {
          "internalType": "address",
          "name": "clone",
          "type": "address"
        }
      ],
      "name": "emitDeploymentEvent",
      "outputs": [],
      "stateMutability": "nonpayable",
      "type": "function"
    },
    {
      "inputs": [
        {
          "internalType": "address",
          "name": "oldImplementation",
          "type": "address"
        },
        {
          "internalType": "address",
          "name": "newImplementation",
          "type": "address"
        }
      ],
      "name": "emitFactoryImplementationSet",
      "outputs": [],
      "stateMutability": "nonpayable",
      "type": "function"
    },
    {
      "inputs": [
        {
          "internalType": "string",
          "name": "metadata",
          "type": "string"
        }
      ],
      "name": "emitPlatformMetadataSet",
      "outputs": [],
      "stateMutability": "nonpayable",
      "type": "function"
    },
    {
      "inputs": [
        {
          "internalType": "address",
          "name": "account",
          "type": "address"
        },
        {
          "internalType": "uint8",
          "name": "role",
          "type": "uint8"
        }
      ],
      "name": "emitRoleSet",
      "outputs": [],
      "stateMutability": "nonpayable",
      "type": "function"
    }
  ],
  "bytecode": {
    "object": "0x608060405234801561001057600080fd5b50610456806100206000396000f3fe608060405234801561001057600080fd5b50600436106100625760003560e01c806322fd9ed7146100675780636e9fe9901461007c57806371c194ec1461008f57806383c8e47b146100a2578063a3938225146100b5578063de3bacf5146100c8575b600080fd5b61007a61007536600461027f565b6100db565b005b61007a61008a36600461027f565b61011a565b61007a61009d3660046102fb565b610159565b61007a6100b036600461033d565b6101a0565b61007a6100c336600461037a565b6101df565b61007a6100d63660046103d8565b610233565b6040516001600160a01b03808316919084169033907f0a7edb67b6ca4b003a2209d9b62ce843cd9fa2dcc68932f6e6eba54c16c32d0290600090a45050565b6040516001600160a01b03808316919084169033907fe30784b97c85804517b7c35cb82a1ba9f5f5e7a90ceb80ffab76908cb9b1a70890600090a45050565b336001600160a01b03167f3eccf902f42df95f6daba9669a101e36471dade3de96d4a72acb267d8b14388983836040516101949291906103f1565b60405180910390a25050565b60405160ff8216906001600160a01b0384169033907f8af134f69cb101e9e8b8a5ea0e502f6021fdae29a80545caba4b7debef72dc4390600090a45050565b806001600160a01b031684336001600160a01b03167fb2e769fd9d7360fdf786407da72b1e9f9fc4f1ad801929941e2abb37ceabef4f86866040516102259291906103f1565b60405180910390a450505050565b604051819033907fb8e33114aaa6b432640d2f6070467f19eaa6e20ba984aa811b85f9a5994750fd90600090a350565b80356001600160a01b038116811461027a57600080fd5b919050565b6000806040838503121561029257600080fd5b61029b83610263565b91506102a960208401610263565b90509250929050565b60008083601f8401126102c457600080fd5b50813567ffffffffffffffff8111156102dc57600080fd5b6020830191508360208285010111156102f457600080fd5b9250929050565b6000806020838503121561030e57600080fd5b823567ffffffffffffffff81111561032557600080fd5b610331858286016102b2565b90969095509350505050565b6000806040838503121561035057600080fd5b61035983610263565b9150602083013560ff8116811461036f57600080fd5b809150509250929050565b6000806000806060858703121561039057600080fd5b84359350602085013567ffffffffffffffff8111156103ae57600080fd5b6103ba878288016102b2565b90945092506103cd905060408601610263565b905092959194509250565b6000602082840312156103ea57600080fd5b5035919050565b60208152816020820152818360408301376000818301604090810191909152601f909201601f1916010191905056fea2646970667358221220c7a17d8351d3125b426c8b7e673d9bfc15079b4209bd3b9484211827459dff1964736f6c634300080d0033",
    "linkReferences": {}
  },
  "methodIdentifiers": {
    "emitContentRemoved(uint256)": "de3bacf5",
    "emitContentSet(uint256,string,address)": "a3938225",
    "emitDeploymentEvent(address,address)": "6e9fe990",
    "emitFactoryImplementationSet(address,address)": "22fd9ed7",
    "emitPlatformMetadataSet(string)": "71c194ec",
    "emitRoleSet(address,uint8)": "83c8e47b"
  },
  "id": 24
}