{
  "abi": [
    {
      "anonymous": false,
      "inputs": [
        {
          "indexed": true,
          "internalType": "address",
          "name": "factory",
          "type": "address"
        },
        {
          "indexed": true,
          "internalType": "address",
          "name": "owner",
          "type": "address"
        },
        {
          "indexed": true,
          "internalType": "address",
          "name": "clone",
          "type": "address"
        }
      ],
      "name": "CloneDeployed",
      "type": "event"
    },
    {
      "anonymous": false,
      "inputs": [
        {
          "indexed": true,
          "internalType": "address",
          "name": "clone",
          "type": "address"
        },
        {
          "indexed": true,
          "internalType": "uint256",
          "name": "contentId",
          "type": "uint256"
        },
        {
          "indexed": false,
          "internalType": "string",
          "name": "contentURI",
          "type": "string"
        },
        {
          "indexed": true,
          "internalType": "address",
          "name": "owner",
          "type": "address"
        }
      ],
      "name": "ContentSet",
      "type": "event"
    },
    {
      "anonymous": false,
      "inputs": [
        {
          "indexed": true,
          "internalType": "address",
          "name": "factory",
          "type": "address"
        },
        {
          "indexed": true,
          "internalType": "address",
          "name": "oldImplementation",
          "type": "address"
        },
        {
          "indexed": true,
          "internalType": "address",
          "name": "newImplementation",
          "type": "address"
        }
      ],
      "name": "FactoryImplementationSet",
      "type": "event"
    },
    {
      "anonymous": false,
      "inputs": [
        {
          "indexed": true,
          "internalType": "address",
          "name": "clone",
          "type": "address"
        },
        {
          "indexed": false,
          "internalType": "string",
          "name": "metadataURI",
          "type": "string"
        }
      ],
      "name": "PlatformMetadataURISet",
      "type": "event"
    },
    {
      "anonymous": false,
      "inputs": [
        {
          "indexed": true,
          "internalType": "address",
          "name": "clone",
          "type": "address"
        },
        {
          "indexed": true,
          "internalType": "address",
          "name": "account",
          "type": "address"
        },
        {
          "indexed": true,
          "internalType": "bytes32",
          "name": "role",
          "type": "bytes32"
        },
        {
          "indexed": false,
          "internalType": "bool",
          "name": "granted",
          "type": "bool"
        }
      ],
      "name": "RoleSet",
      "type": "event"
    },
    {
      "inputs": [
        {
          "internalType": "uint256",
          "name": "contentId",
          "type": "uint256"
        },
        {
          "internalType": "string",
          "name": "contentURI",
          "type": "string"
        },
        {
          "internalType": "address",
          "name": "owner",
          "type": "address"
        }
      ],
      "name": "emitContentSet",
      "outputs": [],
      "stateMutability": "nonpayable",
      "type": "function"
    },
    {
      "inputs": [
        {
          "internalType": "address",
          "name": "owner",
          "type": "address"
        },
        {
          "internalType": "address",
          "name": "clone",
          "type": "address"
        }
      ],
      "name": "emitDeploymentEvent",
      "outputs": [],
      "stateMutability": "nonpayable",
      "type": "function"
    },
    {
      "inputs": [
        {
          "internalType": "address",
          "name": "oldImplementation",
          "type": "address"
        },
        {
          "internalType": "address",
          "name": "newImplementation",
          "type": "address"
        }
      ],
      "name": "emitFactoryImplementationSet",
      "outputs": [],
      "stateMutability": "nonpayable",
      "type": "function"
    },
    {
      "inputs": [
        {
          "internalType": "string",
          "name": "metadataURI",
          "type": "string"
        }
      ],
      "name": "emitPlatformMetadataURISet",
      "outputs": [],
      "stateMutability": "nonpayable",
      "type": "function"
    },
    {
      "inputs": [
        {
          "internalType": "address",
          "name": "account",
          "type": "address"
        },
        {
          "internalType": "bytes32",
          "name": "role",
          "type": "bytes32"
        },
        {
          "internalType": "bool",
          "name": "granted",
          "type": "bool"
        }
      ],
      "name": "emitRoleSet",
      "outputs": [],
      "stateMutability": "nonpayable",
      "type": "function"
    }
  ],
  "bytecode": {
    "object": "0x608060405234801561001057600080fd5b5061040d806100206000396000f3fe608060405234801561001057600080fd5b50600436106100575760003560e01c8063160db7c81461005c57806322fd9ed7146100715780633afea658146100845780636e9fe99014610097578063a3938225146100aa575b600080fd5b61006f61006a366004610274565b6100bd565b005b61006f61007f3660046102d2565b610104565b61006f610092366004610305565b610143565b61006f6100a53660046102d2565b610198565b61006f6100b836600461034a565b6101d7565b336001600160a01b03167f441d034d1718eeceeb32f3a5e35847835a0d1c04f3aae676753ad590e1b1522f83836040516100f89291906103a8565b60405180910390a25050565b6040516001600160a01b03808316919084169033907f0a7edb67b6ca4b003a2209d9b62ce843cd9fa2dcc68932f6e6eba54c16c32d0290600090a45050565b81836001600160a01b0316336001600160a01b03167f0d5f1d86e5081fce5c030b02c36c2e5efc190da0855a6e26a85d826c626325938460405161018b911515815260200190565b60405180910390a4505050565b6040516001600160a01b03808316919084169033907fe30784b97c85804517b7c35cb82a1ba9f5f5e7a90ceb80ffab76908cb9b1a70890600090a45050565b806001600160a01b031684336001600160a01b03167fb2e769fd9d7360fdf786407da72b1e9f9fc4f1ad801929941e2abb37ceabef4f868660405161021d9291906103a8565b60405180910390a450505050565b60008083601f84011261023d57600080fd5b50813567ffffffffffffffff81111561025557600080fd5b60208301915083602082850101111561026d57600080fd5b9250929050565b6000806020838503121561028757600080fd5b823567ffffffffffffffff81111561029e57600080fd5b6102aa8582860161022b565b90969095509350505050565b80356001600160a01b03811681146102cd57600080fd5b919050565b600080604083850312156102e557600080fd5b6102ee836102b6565b91506102fc602084016102b6565b90509250929050565b60008060006060848603121561031a57600080fd5b610323846102b6565b9250602084013591506040840135801515811461033f57600080fd5b809150509250925092565b6000806000806060858703121561036057600080fd5b84359350602085013567ffffffffffffffff81111561037e57600080fd5b61038a8782880161022b565b909450925061039d9050604086016102b6565b905092959194509250565b60208152816020820152818360408301376000818301604090810191909152601f909201601f1916010191905056fea26469706673582212202ff328e1dccd7bb11c27651ea4cfc0fb55597143284977e01f0b76626ac1cf3b64736f6c634300080d0033",
    "linkReferences": {}
  },
  "methodIdentifiers": {
    "emitContentSet(uint256,string,address)": "a3938225",
    "emitDeploymentEvent(address,address)": "6e9fe990",
    "emitFactoryImplementationSet(address,address)": "22fd9ed7",
    "emitPlatformMetadataURISet(string)": "160db7c8",
    "emitRoleSet(address,bytes32,bool)": "3afea658"
  },
  "id": 28
}