{
  "abi": [
    {
      "anonymous": false,
      "inputs": [
        {
          "indexed": true,
          "internalType": "address",
          "name": "factory",
          "type": "address"
        },
        {
          "indexed": true,
          "internalType": "address",
          "name": "owner",
          "type": "address"
        },
        {
          "indexed": true,
          "internalType": "address",
          "name": "clone",
          "type": "address"
        }
      ],
      "name": "CloneDeployed",
      "type": "event"
    },
    {
      "anonymous": false,
      "inputs": [
        {
          "indexed": true,
          "internalType": "address",
          "name": "clone",
          "type": "address"
        },
        {
          "indexed": true,
          "internalType": "uint256",
          "name": "bundleId",
          "type": "uint256"
        },
        {
          "indexed": false,
          "internalType": "string",
          "name": "bundleJSON",
          "type": "string"
        },
        {
          "indexed": true,
          "internalType": "address",
          "name": "owner",
          "type": "address"
        }
      ],
      "name": "ContentSet",
      "type": "event"
    },
    {
      "anonymous": false,
      "inputs": [
        {
          "indexed": true,
          "internalType": "address",
          "name": "factory",
          "type": "address"
        },
        {
          "indexed": true,
          "internalType": "address",
          "name": "oldImplementation",
          "type": "address"
        },
        {
          "indexed": true,
          "internalType": "address",
          "name": "newImplementation",
          "type": "address"
        }
      ],
      "name": "FactoryImplementationSet",
      "type": "event"
    },
    {
      "anonymous": false,
      "inputs": [
        {
          "indexed": true,
          "internalType": "address",
          "name": "clone",
          "type": "address"
        },
        {
          "indexed": false,
          "internalType": "string",
          "name": "metadataJSON",
          "type": "string"
        }
      ],
      "name": "PlatformMetadataSet",
      "type": "event"
    },
    {
      "anonymous": false,
      "inputs": [
        {
          "indexed": true,
          "internalType": "address",
          "name": "clone",
          "type": "address"
        },
        {
          "indexed": true,
          "internalType": "address",
          "name": "account",
          "type": "address"
        },
        {
          "indexed": true,
          "internalType": "bytes32",
          "name": "role",
          "type": "bytes32"
        },
        {
          "indexed": false,
          "internalType": "bool",
          "name": "granted",
          "type": "bool"
        }
      ],
      "name": "RoleSet",
      "type": "event"
    },
    {
      "inputs": [
        {
          "internalType": "uint256",
          "name": "bundleId",
          "type": "uint256"
        },
        {
          "internalType": "string",
          "name": "bundleJSON",
          "type": "string"
        },
        {
          "internalType": "address",
          "name": "owner",
          "type": "address"
        }
      ],
      "name": "emitContentSet",
      "outputs": [],
      "stateMutability": "nonpayable",
      "type": "function"
    },
    {
      "inputs": [
        {
          "internalType": "address",
          "name": "owner",
          "type": "address"
        },
        {
          "internalType": "address",
          "name": "clone",
          "type": "address"
        }
      ],
      "name": "emitDeploymentEvent",
      "outputs": [],
      "stateMutability": "nonpayable",
      "type": "function"
    },
    {
      "inputs": [
        {
          "internalType": "address",
          "name": "oldImplementation",
          "type": "address"
        },
        {
          "internalType": "address",
          "name": "newImplementation",
          "type": "address"
        }
      ],
      "name": "emitFactoryImplementationSet",
      "outputs": [],
      "stateMutability": "nonpayable",
      "type": "function"
    },
    {
      "inputs": [
        {
          "internalType": "string",
          "name": "metadataJSON",
          "type": "string"
        }
      ],
      "name": "emitPlatformMetadataSet",
      "outputs": [],
      "stateMutability": "nonpayable",
      "type": "function"
    },
    {
      "inputs": [
        {
          "internalType": "address",
          "name": "account",
          "type": "address"
        },
        {
          "internalType": "bytes32",
          "name": "role",
          "type": "bytes32"
        },
        {
          "internalType": "bool",
          "name": "granted",
          "type": "bool"
        }
      ],
      "name": "emitRoleSet",
      "outputs": [],
      "stateMutability": "nonpayable",
      "type": "function"
    }
  ],
  "bytecode": {
    "object": "0x608060405234801561001057600080fd5b5061040d806100206000396000f3fe608060405234801561001057600080fd5b50600436106100575760003560e01c806322fd9ed71461005c5780633afea658146100715780636e9fe9901461008457806371c194ec14610097578063a3938225146100aa575b600080fd5b61006f61006a366004610247565b6100bd565b005b61006f61007f36600461027a565b6100fc565b61006f610092366004610247565b610151565b61006f6100a5366004610308565b610190565b61006f6100b836600461034a565b6101d7565b6040516001600160a01b03808316919084169033907f0a7edb67b6ca4b003a2209d9b62ce843cd9fa2dcc68932f6e6eba54c16c32d0290600090a45050565b81836001600160a01b0316336001600160a01b03167f0d5f1d86e5081fce5c030b02c36c2e5efc190da0855a6e26a85d826c6263259384604051610144911515815260200190565b60405180910390a4505050565b6040516001600160a01b03808316919084169033907fe30784b97c85804517b7c35cb82a1ba9f5f5e7a90ceb80ffab76908cb9b1a70890600090a45050565b336001600160a01b03167f3eccf902f42df95f6daba9669a101e36471dade3de96d4a72acb267d8b14388983836040516101cb9291906103a8565b60405180910390a25050565b806001600160a01b031684336001600160a01b03167fb2e769fd9d7360fdf786407da72b1e9f9fc4f1ad801929941e2abb37ceabef4f868660405161021d9291906103a8565b60405180910390a450505050565b80356001600160a01b038116811461024257600080fd5b919050565b6000806040838503121561025a57600080fd5b6102638361022b565b91506102716020840161022b565b90509250929050565b60008060006060848603121561028f57600080fd5b6102988461022b565b925060208401359150604084013580151581146102b457600080fd5b809150509250925092565b60008083601f8401126102d157600080fd5b50813567ffffffffffffffff8111156102e957600080fd5b60208301915083602082850101111561030157600080fd5b9250929050565b6000806020838503121561031b57600080fd5b823567ffffffffffffffff81111561033257600080fd5b61033e858286016102bf565b90969095509350505050565b6000806000806060858703121561036057600080fd5b84359350602085013567ffffffffffffffff81111561037e57600080fd5b61038a878288016102bf565b909450925061039d90506040860161022b565b905092959194509250565b60208152816020820152818360408301376000818301604090810191909152601f909201601f1916010191905056fea2646970667358221220ea37701858fd120eb68d9ab777076b97aa84d367ffb73338795c1ef829f0eb9164736f6c634300080d0033",
    "linkReferences": {}
  },
  "methodIdentifiers": {
    "emitContentSet(uint256,string,address)": "a3938225",
    "emitDeploymentEvent(address,address)": "6e9fe990",
    "emitFactoryImplementationSet(address,address)": "22fd9ed7",
    "emitPlatformMetadataSet(string)": "71c194ec",
    "emitRoleSet(address,bytes32,bool)": "3afea658"
  },
  "id": 33
}